{
  "contractName": "LavaDeposit",
  "abi": [
    {
      "constant": true,
      "inputs": [
        {
          "name": "b",
          "type": "bytes"
        }
      ],
      "name": "bytesToAddr",
      "outputs": [
        {
          "name": "",
          "type": "address"
        }
      ],
      "payable": false,
      "stateMutability": "view",
      "type": "function"
    },
    {
      "constant": false,
      "inputs": [],
      "name": "acceptOwnership",
      "outputs": [],
      "payable": false,
      "stateMutability": "nonpayable",
      "type": "function"
    },
    {
      "constant": true,
      "inputs": [],
      "name": "owner",
      "outputs": [
        {
          "name": "",
          "type": "address"
        }
      ],
      "payable": false,
      "stateMutability": "view",
      "type": "function"
    },
    {
      "constant": false,
      "inputs": [
        {
          "name": "from",
          "type": "address"
        },
        {
          "name": "tokens",
          "type": "uint256"
        },
        {
          "name": "token",
          "type": "address"
        },
        {
          "name": "data",
          "type": "bytes"
        }
      ],
      "name": "receiveApproval",
      "outputs": [
        {
          "name": "success",
          "type": "bool"
        }
      ],
      "payable": false,
      "stateMutability": "nonpayable",
      "type": "function"
    },
    {
      "constant": true,
      "inputs": [],
      "name": "walletContract",
      "outputs": [
        {
          "name": "",
          "type": "address"
        }
      ],
      "payable": false,
      "stateMutability": "view",
      "type": "function"
    },
    {
      "constant": true,
      "inputs": [],
      "name": "newOwner",
      "outputs": [
        {
          "name": "",
          "type": "address"
        }
      ],
      "payable": false,
      "stateMutability": "view",
      "type": "function"
    },
    {
      "constant": false,
      "inputs": [
        {
          "name": "tokenAddress",
          "type": "address"
        },
        {
          "name": "tokens",
          "type": "uint256"
        }
      ],
      "name": "transferAnyERC20Token",
      "outputs": [
        {
          "name": "success",
          "type": "bool"
        }
      ],
      "payable": false,
      "stateMutability": "nonpayable",
      "type": "function"
    },
    {
      "constant": false,
      "inputs": [
        {
          "name": "_newOwner",
          "type": "address"
        }
      ],
      "name": "transferOwnership",
      "outputs": [],
      "payable": false,
      "stateMutability": "nonpayable",
      "type": "function"
    },
    {
      "constant": false,
      "inputs": [
        {
          "name": "from",
          "type": "address"
        },
        {
          "name": "to",
          "type": "address"
        },
        {
          "name": "token",
          "type": "address"
        },
        {
          "name": "tokens",
          "type": "uint256"
        }
      ],
      "name": "depositTokensForAccount",
      "outputs": [
        {
          "name": "success",
          "type": "bool"
        }
      ],
      "payable": false,
      "stateMutability": "nonpayable",
      "type": "function"
    },
    {
      "inputs": [
        {
          "name": "wContract",
          "type": "address"
        }
      ],
      "payable": false,
      "stateMutability": "nonpayable",
      "type": "constructor"
    },
    {
      "payable": true,
      "stateMutability": "payable",
      "type": "fallback"
    },
    {
      "anonymous": false,
      "inputs": [
        {
          "indexed": false,
          "name": "token",
          "type": "address"
        },
        {
          "indexed": false,
          "name": "from",
          "type": "address"
        },
        {
          "indexed": false,
          "name": "to",
          "type": "address"
        },
        {
          "indexed": false,
          "name": "amount",
          "type": "uint256"
        }
      ],
      "name": "Deposit",
      "type": "event"
    },
    {
      "anonymous": false,
      "inputs": [
        {
          "indexed": true,
          "name": "_from",
          "type": "address"
        },
        {
          "indexed": true,
          "name": "_to",
          "type": "address"
        }
      ],
      "name": "OwnershipTransferred",
      "type": "event"
    }
  ],
  "bytecode": "0x6060604052341561000f57600080fd5b604051602080610eda83398101604052808051906020019091905050336000806101000a81548173ffffffffffffffffffffffffffffffffffffffff021916908373ffffffffffffffffffffffffffffffffffffffff16021790555080600460006101000a81548173ffffffffffffffffffffffffffffffffffffffff021916908373ffffffffffffffffffffffffffffffffffffffff16021790555050610e1e806100bc6000396000f300606060405260043610610099576000357c0100000000000000000000000000000000000000000000000000000000900463ffffffff1680635ef6228c1461009e57806379ba50971461013b5780638da5cb5b146101505780638f4ffcb1146101a5578063d0ed5c2f14610261578063d4ee1d90146102b6578063dc39d06d1461030b578063f2fde38b14610365578063fbf2dd6a1461039e575b600080fd5b34156100a957600080fd5b6100f9600480803590602001908201803590602001908080601f01602080910402602001604051908101604052809392919081815260200183838082843782019150505050505091905050610436565b604051808273ffffffffffffffffffffffffffffffffffffffff1673ffffffffffffffffffffffffffffffffffffffff16815260200191505060405180910390f35b341561014657600080fd5b61014e610503565b005b341561015b57600080fd5b6101636106a2565b604051808273ffffffffffffffffffffffffffffffffffffffff1673ffffffffffffffffffffffffffffffffffffffff16815260200191505060405180910390f35b34156101b057600080fd5b610247600480803573ffffffffffffffffffffffffffffffffffffffff1690602001909190803590602001909190803573ffffffffffffffffffffffffffffffffffffffff1690602001909190803590602001908201803590602001908080601f016020809104026020016040519081016040528093929190818152602001838380828437820191505050505050919050506106c7565b604051808215151515815260200191505060405180910390f35b341561026c57600080fd5b6102746106fc565b604051808273ffffffffffffffffffffffffffffffffffffffff1673ffffffffffffffffffffffffffffffffffffffff16815260200191505060405180910390f35b34156102c157600080fd5b6102c9610722565b604051808273ffffffffffffffffffffffffffffffffffffffff1673ffffffffffffffffffffffffffffffffffffffff16815260200191505060405180910390f35b341561031657600080fd5b61034b600480803573ffffffffffffffffffffffffffffffffffffffff16906020019091908035906020019091905050610748565b604051808215151515815260200191505060405180910390f35b341561037057600080fd5b61039c600480803573ffffffffffffffffffffffffffffffffffffffff16906020019091905050610963565b005b34156103a957600080fd5b61041c600480803573ffffffffffffffffffffffffffffffffffffffff1690602001909190803573ffffffffffffffffffffffffffffffffffffffff1690602001909190803573ffffffffffffffffffffffffffffffffffffffff16906020019091908035906020019091905050610a02565b604051808215151515815260200191505060405180910390f35b6000806000806000809350600186510392505b60006001840111156104f757858381518110151561046357fe5b9060200101517f010000000000000000000000000000000000000000000000000000000000000090047f0100000000000000000000000000000000000000000000000000000000000000027f0100000000000000000000000000000000000000000000000000000000000000900491506002600184885103030260100a820290508084019350828060019003935050610449565b83945050505050919050565b600160009054906101000a900473ffffffffffffffffffffffffffffffffffffffff1673ffffffffffffffffffffffffffffffffffffffff163373ffffffffffffffffffffffffffffffffffffffff1614151561055f57600080fd5b600160009054906101000a900473ffffffffffffffffffffffffffffffffffffffff1673ffffffffffffffffffffffffffffffffffffffff166000809054906101000a900473ffffffffffffffffffffffffffffffffffffffff1673ffffffffffffffffffffffffffffffffffffffff167f8be0079c531659141344cd1fd0a4f28419497f9722a3daafe3b4186f6b6457e060405160405180910390a3600160009054906101000a900473ffffffffffffffffffffffffffffffffffffffff166000806101000a81548173ffffffffffffffffffffffffffffffffffffffff021916908373ffffffffffffffffffffffffffffffffffffffff1602179055506000600160006101000a81548173ffffffffffffffffffffffffffffffffffffffff021916908373ffffffffffffffffffffffffffffffffffffffff160217905550565b6000809054906101000a900473ffffffffffffffffffffffffffffffffffffffff1681565b600080601583511415156106da57600080fd5b6106e383610436565b90506106f186828688610a02565b915050949350505050565b600460009054906101000a900473ffffffffffffffffffffffffffffffffffffffff1681565b600160009054906101000a900473ffffffffffffffffffffffffffffffffffffffff1681565b6000806000809054906101000a900473ffffffffffffffffffffffffffffffffffffffff1673ffffffffffffffffffffffffffffffffffffffff163373ffffffffffffffffffffffffffffffffffffffff161415156107a657600080fd5b8373ffffffffffffffffffffffffffffffffffffffff166370a08231306000604051602001526040518263ffffffff167c0100000000000000000000000000000000000000000000000000000000028152600401808273ffffffffffffffffffffffffffffffffffffffff1673ffffffffffffffffffffffffffffffffffffffff168152602001915050602060405180830381600087803b151561084957600080fd5b6102c65a03f1151561085a57600080fd5b5050506040518051905090508373ffffffffffffffffffffffffffffffffffffffff1663a9059cbb6000809054906101000a900473ffffffffffffffffffffffffffffffffffffffff16856000604051602001526040518363ffffffff167c0100000000000000000000000000000000000000000000000000000000028152600401808373ffffffffffffffffffffffffffffffffffffffff1673ffffffffffffffffffffffffffffffffffffffff16815260200182815260200192505050602060405180830381600087803b151561093257600080fd5b6102c65a03f1151561094357600080fd5b50505060405180519050151561095857600080fd5b600191505092915050565b6000809054906101000a900473ffffffffffffffffffffffffffffffffffffffff1673ffffffffffffffffffffffffffffffffffffffff163373ffffffffffffffffffffffffffffffffffffffff161415156109be57600080fd5b80600160006101000a81548173ffffffffffffffffffffffffffffffffffffffff021916908373ffffffffffffffffffffffffffffffffffffffff16021790555050565b60008273ffffffffffffffffffffffffffffffffffffffff166323b872dd8630856000604051602001526040518463ffffffff167c0100000000000000000000000000000000000000000000000000000000028152600401808473ffffffffffffffffffffffffffffffffffffffff1673ffffffffffffffffffffffffffffffffffffffff1681526020018373ffffffffffffffffffffffffffffffffffffffff1673ffffffffffffffffffffffffffffffffffffffff1681526020018281526020019350505050602060405180830381600087803b1515610ae357600080fd5b6102c65a03f11515610af457600080fd5b505050604051805190501515610b0957600080fd5b8273ffffffffffffffffffffffffffffffffffffffff166339dc5ef28685856000604051602001526040518463ffffffff167c0100000000000000000000000000000000000000000000000000000000028152600401808473ffffffffffffffffffffffffffffffffffffffff1673ffffffffffffffffffffffffffffffffffffffff1681526020018373ffffffffffffffffffffffffffffffffffffffff1673ffffffffffffffffffffffffffffffffffffffff1681526020018281526020019350505050602060405180830381600087803b1515610be857600080fd5b6102c65a03f11515610bf957600080fd5b505050604051805190501515610c0e57600080fd5b8273ffffffffffffffffffffffffffffffffffffffff1663a64b6e5f8585856000604051602001526040518463ffffffff167c0100000000000000000000000000000000000000000000000000000000028152600401808473ffffffffffffffffffffffffffffffffffffffff1673ffffffffffffffffffffffffffffffffffffffff1681526020018373ffffffffffffffffffffffffffffffffffffffff1673ffffffffffffffffffffffffffffffffffffffff1681526020018281526020019350505050602060405180830381600087803b1515610ced57600080fd5b6102c65a03f11515610cfe57600080fd5b505050604051805190501515610d1357600080fd5b7f7cfff908a4b583f36430b25d75964c458d8ede8a99bd61be750e97ee1b2f3a9683868685604051808573ffffffffffffffffffffffffffffffffffffffff1673ffffffffffffffffffffffffffffffffffffffff1681526020018473ffffffffffffffffffffffffffffffffffffffff1673ffffffffffffffffffffffffffffffffffffffff1681526020018373ffffffffffffffffffffffffffffffffffffffff1673ffffffffffffffffffffffffffffffffffffffff16815260200182815260200194505050505060405180910390a1600190509493505050505600a165627a7a72305820d56cfb9b14b4a31fa33b12f00a336942e0fd7a4977472e666c560e819290959d0029",
  "source": "pragma solidity ^0.4.18;\n\nimport \"./SafeMath.sol\";\n\n\n/*\n\n\n*/\n\ncontract ERC20Interface {\n    function totalSupply() public constant returns (uint);\n    function balanceOf(address tokenOwner) public constant returns (uint balance);\n    function allowance(address tokenOwner, address spender) public constant returns (uint remaining);\n    function transfer(address to, uint tokens) public returns (bool success);\n    function approve(address spender, uint tokens) public returns (bool success);\n    function transferFrom(address from, address to, uint tokens) public returns (bool success);\n\n    event Transfer(address indexed from, address indexed to, uint tokens);\n    event Approval(address indexed tokenOwner, address indexed spender, uint tokens);\n}\n\ncontract LavaWalletInterface {\n\n  function depositTokens(address from, address token, uint256 tokens ) public returns (bool success);\n  function withdrawTokens(address token, uint256 tokens) public returns (bool success);\n  function withdrawTokensFrom( address from, address to,address token,  uint tokens) public returns (bool success);\n  function balanceOf(address token,address user) public constant returns (uint);\n  function approveTokens(address spender, address token, uint tokens) public returns (bool success);\n  function transferTokens(address to, address token, uint tokens) public returns (bool success);\n  function transferTokensFrom( address from, address to,address token,  uint tokens) public returns (bool success);\n  function getLavaTypedDataHash(bytes methodname, address from, address to, address token, uint256 tokens, uint256 relayerReward,\n                                    uint256 expires, uint256 nonce) public constant returns (bytes32);\n  function approveTokensWithSignature(address from, address to, address token, uint256 tokens, uint256 relayerReward,\n                                    uint256 expires, uint256 nonce, bytes signature) public returns (bool success);\n  function transferTokensFromWithSignature(address from, address to,  address token, uint256 tokens,  uint256 relayerReward,\n                                    uint256 expires, uint256 nonce, bytes signature) public returns (bool success);\n  function withdrawTokensFromWithSignature(address from, address to,  address token, uint256 tokens,  uint256 relayerReward,\n                                    uint256 expires, uint256 nonce, bytes signature) public returns (bool success);\n  function tokenAllowance(address token, address tokenOwner, address spender) public constant returns (uint remaining);\n  function burnSignature(bytes methodname, address from, address to, address token, uint256 tokens, uint256 relayerReward,\n                                    uint256 expires, uint256 nonce,  bytes signature) public returns (bool success);\n  function signatureBurnStatus(bytes32 digest) public view returns (uint);\n  function approveAndCall(bytes methodname, address from, address to, address token, uint256 tokens, uint256 relayerReward,\n                                    uint256 expires, uint256 nonce, bytes signature ) public returns (bool success);\n\n  event Deposit(address token, address user, uint amount, uint balance);\n  event Withdraw(address token, address user, uint amount, uint balance);\n  event Transfer(address indexed from, address indexed to,address token, uint tokens);\n  event Approval(address indexed tokenOwner, address indexed spender,address token, uint tokens);\n\n}\n\ncontract ApproveAndCallFallBack {\n\n    function receiveApproval(address from, uint256 tokens, address token, bytes data) public;\n\n}\n\n\n\ncontract Owned {\n\n    address public owner;\n\n    address public newOwner;\n\n\n    event OwnershipTransferred(address indexed _from, address indexed _to);\n\n\n    function Owned() public {\n\n        owner = msg.sender;\n\n    }\n\n\n    modifier onlyOwner {\n\n        require(msg.sender == owner);\n\n        _;\n\n    }\n\n\n    function transferOwnership(address _newOwner) public onlyOwner {\n\n        newOwner = _newOwner;\n\n    }\n\n    function acceptOwnership() public {\n\n        require(msg.sender == newOwner);\n\n        OwnershipTransferred(owner, newOwner);\n\n        owner = newOwner;\n\n        newOwner = address(0);\n\n    }\n\n}\n\n\n\n\n\ncontract LavaDeposit is Owned {\n\n\n  using SafeMath for uint;\n\n  // balances[tokenContractAddress][EthereumAccountAddress] = 0\n   mapping(address => mapping (address => uint256)) balances;\n\n   //token => owner => spender : amount\n   mapping(address => mapping (address => mapping (address => uint256))) allowed;\n\n\n   address public walletContract;\n\n  event Deposit(address token, address from, address to, uint amount);\n\n  function LavaDeposit(address wContract) public  {\n    walletContract = wContract;\n  }\n\n\n  //do not allow ether to enter\n  function() public payable {\n      revert();\n  }\n\n\n   //Remember you need pre-approval for this - nice with ApproveAndCall\n  function depositTokensForAccount(address from, address to, address token, uint256 tokens ) public returns (bool success)\n  {\n      //we already have approval so lets do a transferFrom - transfer the tokens into this contract\n\n      if(!ERC20Interface(token).transferFrom(from, this, tokens)) revert();\n\n      //now deposit the tokens into lavawallet and they are still assigned to this contract\n      if(!LavaWalletInterface(token).depositTokens(from, token, tokens)) revert();\n\n      //transfer the tokens into the lava balance of the 'to' account\n      if(!LavaWalletInterface(token).transferTokens(to, token, tokens)) revert();\n\n\n      Deposit(token, from, to, tokens);\n\n      return true;\n  }\n\n\n\n\n       /*\n         Receive approval to spend tokens and perform any action all in one transaction\n       */\n     function receiveApproval(address from, uint256 tokens, address token, bytes data) public returns (bool success) {\n\n       require(data.length == 21); //21 includes the 0x prefix\n\n       //find the address from the data\n       address to = bytesToAddr(data);\n\n       return depositTokensForAccount(from, to, token, tokens );\n\n     }\n\n     function bytesToAddr (bytes b) constant returns (address) {\n      uint result = 0;\n      for (uint i = b.length-1; i+1 > 0; i--) {\n        uint c = uint(b[i]);\n        uint to_inc = c * ( 16 ** ((b.length - i-1) * 2));\n        result += to_inc;\n      }\n      return address(result);\n    }\n\n\n // ------------------------------------------------------------------------\n\n // Owner can transfer out any accidentally sent ERC20 tokens\n // Owner CANNOT transfer out tokens which were purposefully deposited\n\n // ------------------------------------------------------------------------\n\n function transferAnyERC20Token(address tokenAddress, uint tokens) public onlyOwner returns (bool success) {\n\n    //find actual balance of the contract\n     uint tokenBalance = ERC20Interface(tokenAddress).balanceOf(this);\n\n\n\n\n     if(!ERC20Interface(tokenAddress).transfer(owner, tokens)) revert();\n\n\n\n     return true;\n\n }\n\n\n\n\n}\n",
  "sourcePath": "/home/andy/dev/lava-deposit/contracts/LavaDeposit.sol",
  "compiler": {
    "name": "solc",
    "version": "0.4.19+commit.c4cbbb05.Emscripten.clang"
  },
  "schemaVersion": "2.0.0",
  "updatedAt": "2018-06-28T22:45:52.474Z"
}